:1000000012C02CC02BC02AC029C028C027C026C0BF
:1000100025C024C023C0D8C31EC420C01FC01EC01A
:100020001DC01CC01BC011241FBECFE5D4E0DEBF25
:10003000CDBF10E0A0E6B0E0EEE3FBE002C005902B
:100040000D92A836B107D9F710E0A8E6B0E001C0DC
:100050001D92AE3AB107E1F73BD56FC5D1CFDF9323
:10006000CF93CDB7DEB781E290E0FC01108280E251
:1000700090E02AE0FC012083CF91DF910895DF9387
:10008000CF93CDB7DEB72A970FB6F894DEBF0FBE79
:10009000CDBF9E838D8378876F835A8749871A8265
:1000A00019822F8138858D819E81280F391F8D817E
:1000B0009E818F638217930748F08F8198852D81E9
:1000C0003E81820F931F9C838B8306C08D819E810E
:1000D0008F6301969C838B832B813C818D819E81D4
:1000E000A901481B590BCA0198878F8309C00000DA
:1000F00007C0000005C0000003C0000001C00000F0
:1001000086E590E024EAFC012083000086E590E08B
:10011000FC0180818823D4F781E290E0FC0180819A
:10012000887F8093AD008091AD00882F90E0803172
:10013000910531F088339105D1F28830910559F459
:1001400083E290E020EAFC01208386E590E024E849
:10015000FC01208303C08FEF9FEFCDC086E590E0C8
:10016000FC0180818823D4F781E290E0FC0180814A
:10017000887F8093AD008091AD00882F90E0803221
:10018000910509F4B6CF8833910509F4B4CF8831CD
:10019000910571F483E290E02D813E81232F332776
:1001A000FC01208386E590E024E8FC01208305C063
:1001B0008FEF9FEF9A83898397C086E590E0FC01DB
:1001C00080818823D4F781E290E0FC018081887FE0
:1001D0008093AD008091AD00882F90E08033910531
:1001E00009F47FC08833910509F487CF88329105DF
:1001F00059F483E290E02D81FC01208386E590E0B4
:1002000024E8FC01208305C08FEF9FEF9A83898348
:100210006BC086E590E0FC0180818823D4F781E201
:1002200090E0FC018081887F8093AD008091AD00DB
:10023000882F90E08033910509F455C088339105EB
:1002400009F45DCF8832910509F444C08FEF9FEF28
:100250009A83898349C083E290E029853A85F90130
:100260002081FC01208389859A8501969A87898758
:1002700086E590E024E8FC012083000086E590E01C
:10028000FC0180818823D4F781E290E0FC01808129
:10029000887F8093AD008091AD00882F90E08832F8
:1002A000910541F08033910581F48FEF9FEF9A83A0
:1002B00089831AC089819A8101969A8389838F8163
:1002C0009885019798878F8305C08FEF9FEF9A835A
:1002D00089830AC08F819885181619060CF4BBCF44
:1002E00003C0000001C0000086E590E024E9FC01A5
:1002F000208389819A812A960FB6F894DEBF0FBEBB
:10030000CDBFCF91DF910895DF93CF93CDB7DEB707
:100310002A970FB6F894DEBF0FBECDBF9E838D83A4
:1003200078876F835A8749871A8219828D819E81C7
:100330004F81588529853A85BA01A901A0DE9C83A1
:100340008B838B819C812FEF8F3F920719F48FEF66
:100350009FEF29C02F8138858B819C81A901481B83
:10036000590BCA0198878F838B819C812D813E8197
:10037000820F931F9E838D838B819C8129853A8573
:10038000820F931F9A87898729813A818B819C816B
:10039000820F931F9A8389838F8198851816190677
:1003A0002CF289819A812A960FB6F894DEBF0FBE8F
:1003B000CDBFCF91DF910895DF93CF93CDB7DEB757
:1003C00029970FB6F894DEBF0FBECDBF9D838C83F7
:1003D0007F836E83598748871B821A820DC0000075
:1003E0000BC0000009C0000007C0000005C00000ED
:1003F00003C0000001C0000086E590E024EAFC0193
:100400002083000086E590E0FC0180818823D4F7FA
:1004100081E290E0FC018081887F8093AD00809133
:10042000AD00882F90E08031910531F0883391053F
:10043000B1F28830910559F483E290E020EAFC01A2
:10044000208386E590E024E8FC01208303C08FEF41
:100450009FEF36C186E590E0FC0180818823D4F7C8
:1004600081E290E0FC018081887F8093AD008091E3
:10047000AD00882F90E08032910509F4B2CF883327
:10048000910509F4B0CF8831910571F483E290E0D1
:100490002C813D81232F3327FC01208386E590E0CA
:1004A00024E8FC01208305C08FEF9FEF9B838A83A4
:1004B00000C186E590E0FC0180818823D4F781E2C9
:1004C00090E0FC018081887F8093AD008091AD0039
:1004D000882F90E08033910509F4E6C088339105B8
:1004E00009F483CF8832910559F483E290E02C819E
:1004F000FC01208386E590E024E8FC01208305C010
:100500008FEF9FEF9B838A83D4C086E590E0FC0148
:1005100080818823D4F781E290E0FC018081887F8C
:100520008093AD008091AD00882F90E080339105DD
:1005300009F4BCC08833910509F459CF883291057C
:1005400031F486E590E024EAFC01208305C08FEFBA
:100550009FEF9B838A83ADC086E590E0FC0180819C
:100560008823D4F781E290E0FC018081887F80932A
:10057000AD008091AD00882F90E08031910539F079
:100580008833910509F435CF8830910559F483E219
:1005900090E021EAFC01208386E590E024E8FC015C
:1005A000208305C08FEF9FEF9B838A8382C086E5FF
:1005B00090E0FC0180818823D4F781E290E0FC0187
:1005C0008081887F8093AD008091AD00882F90E07E
:1005D0008034910549F08834910509F469C0883365
:1005E000910509F408CF03C084EC898356C08FEFCE
:1005F0009FEF9B838A835DC08E819F8181309105AF
:1006000011F484E8898386E590E02981FC01208348
:10061000000086E590E0FC0180818823D4F781E228
:1006200090E0FC018081887F8093AD008091AD00D7
:10063000882F90E08035910599F08835910519F55E
:1006400083E290E0FC01208188859985FC0120836C
:100650008A819B8101969B838A831F821E8218C098
:1006600083E290E0FC01208188859985FC0120834C
:10067000888599850196998788878A819B810196CB
:100680009B838A8305C08FEF9FEF9B838A8311C072
:100690008E819F8101979F838E838E819F81181603
:1006A00019060CF4A9CF05C0000003C0000001C06A
:1006B000000086E590E024E9FC0120838A819B818B
:1006C00029960FB6F894DEBF0FBECDBFCF91DF9154
:1006D000089500C000C000C000C000C000C00000FD
:1006E00008958C988D989498959808958C9AF1DF38
:1006F0001DD008958D9AEDDF8C98EBDF8D98E9DFA2
:100700008C9AE7DF13D00895082E8C9AE2DF802DB3
:100710000DD0882311F002D0F8CF08958D9A8C9ACD
:10072000D8DF8D98D6DF8C98D4DF08950894881F81
:1007300001C0880F59F08D9A18F400008C9802C0FF
:100740008C9A00C0C6DF8D98C4DFF3CF8D9A8C9849
:10075000C0DF8D98859BFECF8827849981E0B9DF23
:1007600099270895882701C081E071E08D9A8C98BF
:10077000B0DF8D98AEDF859BFECF88948499089476
:10078000771FA0F78D9A813011F08C9801C08C9A58
:10079000A0DF8D98859BFECF9CDF872F992708953A
:1007A000DF93CF9300D0CDB7DEB79A83898399DFEB
:1007B00080EAAADF85E0BADF85E7B8DFAFDF0F9018
:1007C0000F90CF91DF9108951F920F920FB60F9265
:1007D00011242F938F939F93EF93FF93DF93CF93E6
:1007E00000D000D0CDB7DEB78BE290E0FC01808175
:1007F0008A838CE290E0FC0180818B838A818871FE
:1008000089838091AA008F5F8F718C838091AB0068
:100810009C81981719F482E089830BC08C818093A6
:10082000AA008C81882F90E088579F4F2B81FC0174
:10083000208389818093AC002496DEBFCDBFCF9109
:10084000DF91FF91EF919F918F912F910F900FBEAC
:100850000F901F9018951F920F920FB60F921124B0
:100860002F933F938F939F93EF93FF93DF93CF93B8
:100870000F92CDB7DEB79091A8008091A90098178C
:10088000A1F08091A9008F5F8F7189838981809306
:10089000A9008CE290E02981222F30E028593F4FB7
:1008A000F9012081FC01208309C08AE290E02AE25C
:1008B00030E0F90120812F7DFC0120830F90CF9142
:1008C000DF91FF91EF919F918F913F912F910F9029
:1008D0000FBE0F901F901895DF93CF9300D0CDB728
:1008E000DEB79A8389831092A8001092A900109213
:1008F000AA001092AB0089819A81992354F48BE26B
:1009000090E022E0FC01208389819A819F779A837D
:10091000898380E490E029813A81232F3327FC01E9
:10092000208389E290E02981FC0120838AE290E023
:1009300028E9FC01208380E490E026E8FC01208384
:100940000F900F90CF91DF910895DF93CF9300D058
:10095000CDB7DEB79091AA008091AB00981719F43B
:1009600080E091E01BC08091AB008F5F8F71898325
:1009700089818093AB008981882F90E088579F4FB1
:10098000FC0180818A838091AC00882F90E0382F11
:1009900022278A81882F90E0820F931F0F900F905B
:1009A000CF91DF910895DF93CF9300D0CDB7DEB71D
:1009B0008A838091A8008F5F8F7189830000809166
:1009C000A90099819817D9F38981882F90E08859D7
:1009D0009F4F2A81FC01208389818093A8008AE2AD
:1009E00090E02AE230E0F90120812062FC012083BE
:1009F0000F900F90CF91DF910895DF93CF9300D0A8
:100A0000CDB7DEB79A8389830BC089819A81FC01B7
:100A1000208189819A8101969A838983822FC3DFFD
:100A200089819A81FC018081882379F70F900F904A
:100A3000CF91DF9108951F93DF93CF9300D000D023
:100A40000F92CDB7DEB79D838C8302C0812FABDFC1
:100A50008C819D819A8389838C819D8101969D8360
:100A60008C8389819A81FC0114911B838B81182FBF
:100A7000112361F70F900F900F900F900F90CF916F
:100A8000DF911F910895DF93CF93CDB7DEB78091AB
:100A9000AA00882F90E09C01215E3F4F8091AB001F
:100AA000882F90E0A901481B590BCA012FE130E0C3
:100AB000B9011CD0CF91DF910895DF93CF93CDB7CB
:100AC000DEB78091AB008093AA00CF91DF910895AB
:100AD000DF93CF93CDB7DEB7C2DA20E630E080E017
:100AE00090E067E070E0A9010FDCFFCF97FB092ED3
:100AF00007260AD077FD04D00CD006D000201AF4C7
:100B0000709561957F4F0895F6F7909581959F4F69
:100B10000895AA1BBB1B51E107C0AA1FBB1FA61744
:100B2000B70710F0A61BB70B881F991F5A95A9F796
:0E0B300080959095BC01CD010895F894FFCFFB
:080B3E000101010101010100A8
:00000001FF
