:1000000052C017C96BC06AC069C068C067C066C00B
:1000100036C464C063C06AC4B0C460C05FC05EC0A0
:100020005DC05CC05BC0040309040C0342006F00A8
:100030006A006F006B000C0354006F006B006500DA
:100040006E001201100100000008C016DF0500015B
:1000500001020001090222000101008019090400C7
:100060000001030000000921010100012230000706
:1000700005810308006406A0FF0901A1010902151A
:100080000026FF007508950881020903150026FF68
:10009000007508950891020904150026FF007508EF
:1000A0009501B20201C011241FBECFE5D4E0DEBF2E
:1000B000CDBF10E0A0E6B0E0EAEFF6E102C00590A7
:1000C0000D92AA36B107D9F710E0AAE6B0E001C058
:1000D0001D92AA3EB107E1F7B2DA0DCB91CFDF93C3
:1000E000CF93CDB7DEB781E290E0FC01108280E2D1
:1000F00090E02AE0FC012083CF91DF910895DF9307
:10010000CF93CDB7DEB72A970FB6F894DEBF0FBEF8
:10011000CDBF9E838D8378876F835A8749871A82E4
:1001200019822F8138858D819E81280F391F8D81FD
:100130009E818F638217930748F08F8198852D8168
:100140003E81820F931F9C838B8306C08D819E818D
:100150008F6301969C838B832B813C818D819E8153
:10016000A901481B590BCA0198878F8309C0000059
:1001700007C0000005C0000003C0000001C000006F
:1001800086E590E024EAFC012083000086E590E00B
:10019000FC0180818823D4F781E290E0FC0180811A
:1001A000887F8093B3008091B300882F90E08031E6
:1001B000910531F088339105D1F28830910559F4D9
:1001C00083E290E020EAFC01208386E590E024E8C9
:1001D000FC01208303C08FEF9FEFCDC086E590E048
:1001E000FC0180818823D4F781E290E0FC018081CA
:1001F000887F8093B3008091B300882F90E0803295
:10020000910509F4B6CF8833910509F4B4CF88314C
:10021000910571F483E290E02D813E81232F3327F5
:10022000FC01208386E590E024E8FC01208305C0E2
:100230008FEF9FEF9A83898397C086E590E0FC015A
:1002400080818823D4F781E290E0FC018081887F5F
:100250008093B3008091B300882F90E080339105A4
:1002600009F47FC08833910509F487CF883291055E
:1002700059F483E290E02D81FC01208386E590E033
:1002800024E8FC01208305C08FEF9FEF9A838983C8
:100290006BC086E590E0FC0180818823D4F781E281
:1002A00090E0FC018081887F8093B3008091B3004F
:1002B000882F90E08033910509F455C0883391056B
:1002C00009F45DCF8832910509F444C08FEF9FEFA8
:1002D0009A83898349C083E290E029853A85F901B0
:1002E0002081FC01208389859A8501969A878987D8
:1002F00086E590E024E8FC012083000086E590E09C
:10030000FC0180818823D4F781E290E0FC018081A8
:10031000887F8093B3008091B300882F90E088326B
:10032000910541F08033910581F48FEF9FEF9A831F
:1003300089831AC089819A8101969A8389838F81E2
:100340009885019798878F8305C08FEF9FEF9A83D9
:1003500089830AC08F819885181619060CF4BBCFC3
:1003600003C0000001C0000086E590E024E9FC0124
:10037000208389819A812A960FB6F894DEBF0FBE3A
:10038000CDBFCF91DF910895DF93CF93CDB7DEB787
:100390002A970FB6F894DEBF0FBECDBF9E838D8324
:1003A00078876F835A8749871A8219828D819E8147
:1003B0004F81588529853A85BA01A901A0DE9C8321
:1003C0008B838B819C812FEF8F3F920719F48FEFE6
:1003D0009FEF29C02F8138858B819C81A901481B03
:1003E000590BCA0198878F838B819C812D813E8117
:1003F000820F931F9E838D838B819C8129853A85F3
:10040000820F931F9A87898729813A818B819C81EA
:10041000820F931F9A8389838F81988518161906F6
:100420002CF289819A812A960FB6F894DEBF0FBE0E
:10043000CDBFCF91DF910895DF93CF93CDB7DEB7D6
:1004400029970FB6F894DEBF0FBECDBF9D838C8376
:100450007F836E83598748871B821A820DC00000F4
:100460000BC0000009C0000007C0000005C000006C
:1004700003C0000001C0000086E590E024EAFC0112
:100480002083000086E590E0FC0180818823D4F77A
:1004900081E290E0FC018081887F8093B3008091AD
:1004A000B300882F90E08031910531F088339105B9
:1004B000B1F28830910559F483E290E020EAFC0122
:1004C000208386E590E024E8FC01208303C08FEFC1
:1004D0009FEF36C186E590E0FC0180818823D4F748
:1004E00081E290E0FC018081887F8093B30080915D
:1004F000B300882F90E08032910509F4B2CF8833A1
:10050000910509F4B0CF8831910571F483E290E050
:100510002C813D81232F3327FC01208386E590E049
:1005200024E8FC01208305C08FEF9FEF9B838A8323
:1005300000C186E590E0FC0180818823D4F781E248
:1005400090E0FC018081887F8093B3008091B300AC
:10055000882F90E08033910509F4E6C08833910537
:1005600009F483CF8832910559F483E290E02C811D
:10057000FC01208386E590E024E8FC01208305C08F
:100580008FEF9FEF9B838A83D4C086E590E0FC01C8
:1005900080818823D4F781E290E0FC018081887F0C
:1005A0008093B3008091B300882F90E08033910551
:1005B00009F4BCC08833910509F459CF88329105FC
:1005C00031F486E590E024EAFC01208305C08FEF3A
:1005D0009FEF9B838A83ADC086E590E0FC0180811C
:1005E0008823D4F781E290E0FC018081887F8093AA
:1005F000B3008091B300882F90E08031910539F0ED
:100600008833910509F435CF8830910559F483E298
:1006100090E021EAFC01208386E590E024E8FC01DB
:10062000208305C08FEF9FEF9B838A8382C086E57E
:1006300090E0FC0180818823D4F781E290E0FC0106
:100640008081887F8093B3008091B300882F90E0F1
:100650008034910549F08834910509F469C08833E4
:10066000910509F408CF03C084EC898356C08FEF4D
:100670009FEF9B838A835DC08E819F81813091052E
:1006800011F484E8898386E590E02981FC012083C8
:10069000000086E590E0FC0180818823D4F781E2A8
:1006A00090E0FC018081887F8093B3008091B3004B
:1006B000882F90E08035910599F08835910519F5DE
:1006C00083E290E0FC01208188859985FC012083EC
:1006D0008A819B8101969B838A831F821E8218C018
:1006E00083E290E0FC01208188859985FC012083CC
:1006F000888599850196998788878A819B8101964B
:100700009B838A8305C08FEF9FEF9B838A8311C0F1
:100710008E819F8101979F838E838E819F81181682
:1007200019060CF4A9CF05C0000003C0000001C0E9
:10073000000086E590E024E9FC0120838A819B810A
:1007400029960FB6F894DEBF0FBECDBFCF91DF91D3
:10075000089500C000C000C000C000C000C000007C
:1007600008958C988D989498959808958C9AF1DFB7
:100770001DD008958D9AEDDF8C98EBDF8D98E9DF21
:100780008C9AE7DF13D00895082E8C9AE2DF802D33
:100790000DD0882311F002D0F8CF08958D9A8C9A4D
:1007A000D8DF8D98D6DF8C98D4DF08950894881F01
:1007B00001C0880F59F08D9A18F400008C9802C07F
:1007C0008C9A00C0C6DF8D98C4DFF3CF8D9A8C98C9
:1007D000C0DF8D98859BFECF8827849981E0B9DFA3
:1007E00099270895882701C081E071E08D9A8C983F
:1007F000B0DF8D98AEDF859BFECF889484990894F6
:10080000771FA0F78D9A813011F08C9801C08C9AD7
:10081000A0DF8D98859BFECF9CDF872F99270895B9
:10082000DF93CF9300D0CDB7DEB79A83898399DF6A
:1008300080EAAADF85E0BADF85E7B8DFAFDF0F9097
:100840000F90CF91DF910895DF93CF93CDB7DEB7AF
:100850008EE490E025E0FC0120838DE490E022ED21
:10086000FC0120838CE490E028E3FC01208389E5EF
:1008700090E024E0FC012083CF91DF9108951F9246
:100880000F920FB60F9211242F933F938F939F9344
:10089000EF93FF93DF93CF93CDB7DEB78DE490E076
:1008A00022EDFC0120838CE490E028E3FC0120830E
:1008B00088E390E028E330E0F9012081222F30E046
:1008C00021703070222311F020E001C021E0FC01F2
:1008D0002083CF91DF91FF91EF919F918F913F9175
:1008E0002F910F900FBE0F901F9018951F920F928F
:1008F0000FB60F9211242F938F939F93EF93FF9333
:10090000DF93CF9300D000D0CDB7DEB78BE290E07D
:10091000FC0180818A838CE290E0FC0180818B83E2
:100920008A81887189838091AC008F5F8F718C83FD
:100930008091AD009C81981719F482E089830BC0E7
:100940008C818093AC008C81882F90E086579F4FDC
:100950002B81FC01208389818093AE002496DEBF29
:10096000CDBFCF91DF91FF91EF919F918F912F910B
:100970000F900FBE0F901F9018951F920F920FB6F9
:100980000F9211242F933F938F939F93EF93FF9395
:10099000DF93CF930F92CDB7DEB79091AA008091ED
:1009A000AB009817A1F08091AB008F5F8F718983A6
:1009B00089818093AB008CE290E02981222F30E086
:1009C00026593F4FF9012081FC01208309C08AE2AA
:1009D00090E02AE230E0F90120812F7DFC012083A4
:1009E0000F90CF91DF91FF91EF919F918F913F9168
:1009F0002F910F900FBE0F901F901895DF93CF93FC
:100A000000D0CDB7DEB79A8389831092AA001092E6
:100A1000AB001092AC001092AD0089819A819923AD
:100A200054F48BE290E022E0FC01208389819A81DA
:100A30009F779A83898380E490E029813A81232FEC
:100A40003327FC01208389E290E02981FC01208387
:100A50008AE290E028E9FC01208380E490E026E827
:100A6000FC0120830F900F90CF91DF910895DF93C9
:100A7000CF9300D0CDB7DEB79091AC008091AD00A0
:100A8000981719F480E091E01BC08091AD008F5F52
:100A90008F71898389818093AD008981882F90E04F
:100AA00086579F4FFC0180818A838091AE00882FFA
:100AB00090E0382F22278A81882F90E0820F931FA1
:100AC0000F900F90CF91DF910895DF93CF9300D0D7
:100AD000CDB7DEB78A838091AA008F5F8F7189833B
:100AE00000008091AB0099819817D9F38981882FF4
:100AF00090E086599F4F2A81FC0120838981809351
:100B0000AA008AE290E02AE230E0F9012081206226
:100B1000FC0120830F900F90CF91DF910895DF9318
:100B2000CF9300D0CDB7DEB79A8389830BC089817C
:100B30009A81FC01208189819A8101969A83898317
:100B4000822FC3DF89819A81FC018081882379F714
:100B50000F900F90CF91DF9108951F93DF93CF9364
:100B600000D000D00F92CDB7DEB79D838C8302C03A
:100B7000812FABDF8C819D819A8389838C819D81BC
:100B800001969D838C8389819A81FC0114911B833A
:100B90008B81182F112361F70F900F900F900F90FA
:100BA0000F90CF91DF911F910895DF93CF93CDB731
:100BB000DEB78091AC00882F90E09C01215E3F4F12
:100BC0008091AD00882F90E0A901481B590BCA0104
:100BD0002FE130E0B90142D5CF91DF910895DF9345
:100BE000CF93CDB7DEB78091AD008093AC00CF91AD
:100BF000DF910895DF93CF93CDB7DEB78BE4809379
:100C0000C000CF91DF910895DF93CF93CDB7DEB7CA
:100C1000CF91DF910895DF93CF93CDB7DEB72897BB
:100C20000FB6F894DEBF0FBECDBF9D838C836E835D
:100C300058874F838F819885FC018081882F90E0B1
:100C400080719070009761F08F819885FC0191818F
:100C500088E8292F28278F819885FC01218305C0EA
:100C60008F8198852AE5FC0120838F8198850296E3
:100C70009A8389838E818B838C819D81FC01208165
:100C800089819A81FC01208389819A8101969A83C6
:100C900089838C819D8101969D838C838B8181507A
:100CA0008B838B81882341F78F81988502966E8193
:100CB000BCD28E81282F2C5F8F819885FC012083E8
:100CC00028960FB6F894DEBF0FBECDBFCF91DF914F
:100CD0000895DF93CF9300D00F92CDB7DEB79A83FC
:100CE00089836B8389819A812FEB30E06B81A90125
:100CF00092DF0F900F900F90CF91DF910895DF93C7
:100D0000CF9300D000D000D0CDB7DEB79E838D83C7
:100D1000198280E48A838D819E81FC0183818B838B
:100D20008B81813049F482E1898382E490E0909361
:100D3000CF008093CE004FC08B81823049F482E295
:100D4000898384E590E09093CF008093CE0043C0E8
:100D50008B81833049F58D819E81FC0182818C835A
:100D60008C81882349F484E0898386E290E0909323
:100D7000CF008093CE002FC08C81813049F48CE06D
:100D800089838AE290E09093CF008093CE0023C0C5
:100D90008C81823001F58CE0898386E390E090932A
:100DA000CF008093CE0017C08B81813249F489E057
:100DB000898386E690E09093CF008093CE000BC0AD
:100DC0008B81823241F480E3898386E790E09093BF
:100DD000CF008093CE008A818093AF0089812696D0
:100DE0000FB6F894DEBF0FBECDBFCF91DF9108954F
:100DF000DF93CF93CDB7DEB728970FB6F894DEBF59
:100E00000FBECDBF98878F8319828DEB90E09B83B7
:100E10008A838F819885FC0182818C838A819B8162
:100E2000FC0110828F819885FC0181818D838D81E9
:100E3000882371F48F819885FC0180818F718E8366
:100E40008A819B810196FC01108282E089832CC0FB
:100E50008D81853021F48C818093D10025C08D81D6
:100E6000863029F48F8198854ADF898323C08D815C
:100E7000883039F483ED90E09B838A8381E0898315
:100E800013C08D81893029F48C818093D300BCDE1E
:100E90000BC08D818A3019F481E0898305C08D8172
:100EA0008B3011F4A7DEB0DE8A819B819093CF0056
:100EB0008093CE00898128960FB6F894DEBF0FBECE
:100EC000CDBFCF91DF910895DF93CF93CDB7DEB73C
:100ED00028970FB6F894DEBF0FBECDBF9F838E83D9
:100EE00068878E819F819B838A838091CC008D321D
:100EF00009F046C08885883009F058C083EC80939B
:100F0000B4008AE5809360001092AF008A819B81D3
:100F1000FC01808180768C838C81882329F08E81EE
:100F20009F8154D3898304C08A819B8161DF898337
:100F300089818F3F79F48A819B81FC01808188239C
:100F40002CF48A819B81FC018681898380E88093CF
:100F5000AF0012C08A819B81FC018781882361F4E4
:100F60008A819B81FC0196818981981728F48A8166
:100F70009B81FC018681898389818093610017C0F0
:100F80008091AF0088239CF48E819F816885E0D298
:100F90008D838D818F3F21F48EE18093600007C0A7
:100FA0008D81882321F01092610001C000002896F5
:100FB0000FB6F894DEBF0FBECDBFCF91DF9108957D
:100FC0001F93DF93CF93CDB7DEB72A970FB6F89470
:100FD000DEBF0FBECDBF998788876A878A85882341
:100FE00009F44FC08A8589838091CE009091CF000B
:100FF0009B838A838091AF00882F90E080749070EB
:10100000009709F18A819B819D838C838C819D81CE
:10101000FC0114911E838E818F83888599852F8191
:10102000FC012083888599850196998788878A8124
:101030009B8101969B838A838981815089838981E1
:10104000882301F718C08A819B81FC012081888553
:101050009985FC01208388859985019699878887E1
:101060008A819B8101969B838A83898181508983B0
:101070008981882341F78A819B819093CF00809357
:10108000CE008A852A960FB6F894DEBF0FBECDBF7C
:10109000CF91DF911F910895DF93CF9300D0CDB70B
:1010A000DEB78091610089838981893010F088E002
:1010B0008983909161008981292F281B822F809339
:1010C00061009091B40088E889278093B40085EB93
:1010D00090E0698175DF8A838A81893070F485EBBD
:1010E00090E06A81A2D08A818C5F8A838A818C3069
:1010F00048F48FEF8093610005C08EE18A838FEF03
:10110000809361008A81809360000F900F90CF914F
:10111000DF910895DF93CF930F92CDB7DEB7898328
:101120000F90CF91DF910895DF93CF9300D00F926E
:10113000CDB7DEB78091D00083508A838A8188231F
:101140008CF08091CD00882F90E02CE030E0A90158
:10115000481B590BCA018C529F4F2A81622FB4DE63
:101160001092D00080916000882F90E08071907084
:10117000009729F0809161008F3F09F08DDF8AE0B0
:1011800089830CC080E390E0FC01808184718B83B3
:101190008B81882339F489818150898389818823CF
:1011A00089F701C000008981882329F41092D100B9
:1011B0001092CB0029DD8981ADDF0F900F900F9049
:1011C000CF91DF910895DF93CF93CDB7DEB785E55B
:1011D00090E025E530E0F90120812360FC012083C7
:1011E0008BE590E02BE530E0F90120812064FC01E3
:1011F000208300DD8AE58093BF00CF91DF910895C1
:10120000A82FB92F80E090E041E050EA60956F5F31
:1012100058F42D9138EF82279795879510F0842701
:1012200095273F5FC8F3F3CF0895EADF8D939D9331
:101230000895CF93CFB7CF93849BFECF849B09C0F3
:10124000849B07C0849B05C0849B03C0849B01C012
:10125000A3C0DF93C091CD00DD27CC52DF4F849B2C
:1012600002C0DF91EBCF2F930F931F9300B32FEFAB
:1012700004FB20F94F933F9310B34FEF012704FB7A
:1012800021F93BE031C04E7F012F10B3216028C00F
:10129000102F4D7F2260000000B329C04B7F2460D7
:1012A000012F000010B32BC010B3477F28602AC065
:1012B0004F7E00B320612CC04F7D10B320622FC041
:1012C0004F7B00B3206432C0422700B349934FEFF5
:1012D0000000102714FB20F910B31471C9F1297F05
:1012E00091F2012704FB21F900B3237F89F23150E9
:1012F00058F1102714FB22F910B3277E79F2012749
:1013000004FB23F92F7C81F200B3102714FB24F98E
:101310002F7971F200C010B3012704FB25F92F7358
:1013200059F200C000B3102714FB26F9223040F216
:1013300000C010B3012704FB27F9243028F64F77AB
:10134000206810B30000F9CF10E41ABF002719C0BD
:101350003B503195C31BD04010E41ABF0881033CB9
:10136000F9F00B34E9F02091CB001981110F121321
:10137000EDCF4A81441F093641F10D3211F0013E93
:1013800029F70093D2003F914F911F910F912F9118
:10139000DF91CAB7C6FD50CFCF91CFBFCF9118957F
:1013A0000091D200002379F31091D0001123A1F510
:1013B0003430A2F13093D0000093CC001091CD00D6
:1013C0003BE0311B3093CD0029C00091D0000130AB
:1013D0001CF50AE54F7049F43091600034FD20C0DF
:1013E00000936000C4EBD0E01FC03091BF0034FD1B
:1013F00017C00093BF00C0ECD0E016C0052710E076
:1014000002BB1FC0052722C0052727C005272CC007
:10141000052710E002BB33C04AE503C042ED01C01E
:10142000432FC4E1D0E032E011B31461949A02B3C7
:1014300011BB5F9354E120E820FF052702BB2795ED
:1014400017951C3FD8F620FF0527279502BB179557
:101450001C3FC0F620FF05272795179502BB1C3FB0
:1014600098F620FF0527279517951C3F02BB70F6BD
:1014700000C0499120FF052702BB279517951C3F07
:1014800038F620FF0527279502BB17951C3F38F536
:1014900020FF05272795179502BB1C3F10F520FF5D
:1014A0000527279517951C3F02BBE8F4242F3A9592
:1014B00019F60B7E5F9102BB1091D100110FC6513E
:1014C000D04011F01093CB0010E41ABF006111B3AB
:1014D0001B7E402F4B7E02BB11BB42BB54CF052766
:1014E000D3CF0527D8CF0527DDCFDF93CF9300D00B
:1014F0000F92CDB7DEB79A8389836B838091B20058
:101500009B81891718F48091B2008B838091B10080
:10151000882F90E0AC018B81282F30E089819A815F
:10152000BA01A901C2D09091B1008B81890F80933B
:10153000B1009091B2008B81292F281B822F8093BC
:10154000B2008B810F900F900F90CF91DF91089593
:10155000DF93CF9300D00F92CDB7DEB79A83898304
:101560006B838091B200882311F481E029C08091BF
:10157000B2009B81891718F48091B2008B8380910F
:10158000B100882F90E0AC018B81282F30E0898159
:101590009A81BA01A90199D09091B1008B81890FEC
:1015A0008093B1009091B2008B81292F281B822F4C
:1015B0008093B2009091B20081E0992309F080E01D
:1015C0000F900F900F90CF91DF910895DF93CF93FD
:1015D00000D000D0CDB7DEB79C838B838B819C81FC
:1015E0009A83898389819A81FC018081882F90E088
:1015F0008076907080329105D1F489819A81FC01C6
:101600008181813039F480E88093B2001092B1007A
:101610008FEF0EC089819A81FC018181893039F474
:1016200080E88093B2001092B1008FEF01C080E09B
:101630000F900F900F900F90CF91DF910895DF934F
:10164000CF93CDB7DEB700D94AD522E630E080E0AF
:1016500090E068E070E0A90197D6FFCF97FB092ED4
:1016600007260AD077FD04D00CD006D000201AF44B
:10167000709561957F4F0895F6F7909581959F4FEE
:101680000895AA1BBB1B51E107C0AA1FBB1FA617C9
:10169000B70710F0A61BB70B881F991F5A95A9F71B
:1016A00080959095BC01CD010895DC01CB01FC0132
:1016B000E199FECF06C0FFBBEEBBE09A31960DB2BA
:1016C0000D9241505040B8F70895DC01CB0102C0A3
:1016D0002D9105D041505040D8F70895262FE1991B
:1016E000FECF9FBB8EBB2DBB0FB6F894E29AE19A5A
:0A16F0000FBE01960895F894FFCF95
:0A16FA005AFF010101010103030181
:00000001FF
