:100000004EC021C967C066C065C064C063C062C01D
:1000100037C30AC35FC0DDC605C75CC05BC05AC03A
:1000200059C058C057C0040309040C0342006F00B4
:100030006A006F006B0012034B0047002D00540054
:100040006F006B0065006E001201100100000008D7
:10005000C016DF05000101020001090222000101B2
:1000600000804B0904000001030000000921010188
:1000700000012222000705810308006406A0FF0991
:1000800001A1010902150026FF00750895408102B3
:100090000903150026FF00750895409102C0112440
:1000A0001FBECFE5D4E0DEBFCDBF10E0A0E6B0E0DC
:1000B000E4EDF6E102C005900D92A236B107D9F742
:1000C00011E0A2E6B0E001C01D92AD32B107E1F748
:1000D00088DAFECA95CF11B88AE080B90895680F12
:1000E000791F9C012F632617370718F4B9016F5F3A
:1000F0007F4FA92FF4EAE0EA34E8F6BF06B607FE20
:10010000FDCF21B1287F2093AC00203129F0283386
:10011000A1F3283009F055C0E3B936BF06B607FE93
:10012000FDCF21B1287F2093AC00203231F328335A
:1001300021F3283109F040C0A3B936BF06B607FE47
:10014000FDCF21B1287F2093AC002033A1F02833CC
:10015000A1F2283289F583B936BF06B607FEFDCF76
:1001600021B1287F2093AC00203329F0283329F2D5
:10017000283211F503C020E030E020C0681B790B65
:10018000842F952FFC0120E030E044E80EC08191DF
:1001900083B946BF06B607FEFDCF81B1887F809345
:1001A000AC00883249F42F5F3F4FCB01821B930B89
:1001B0001816190664F302C02FEF3FEF84E986BFDB
:1001C00002C02FEF3FEFC9010895CF92DF92EF9267
:1001D000FF920F931F93CF93DF937C01EB016A0192
:1001E00000E010E0C701BE01A60179DF2FEF8F3FCD
:1001F000920761F0C81BD90B080F191F1C161D06AA
:100200003CF4E80EF91EC80ED91EECCF0FEF1FEF1D
:10021000C801DF91CF911F910F91FF90EF90DF9078
:10022000CF900895FA0144EAA0EA34E851EA46BFC3
:1002300006B607FEFDCF21B1287F2093AC00203108
:1002400029F02833A1F3283009F07CC0A3B936BFC8
:1002500006B607FEFDCF21B1287F2093AC002032E7
:1002600031F3283321F3283109F067C093B936BF41
:1002700006B607FEFDCF21B1287F2093AC002033C6
:10028000C1F12833A1F2283209F057C083B936BF33
:1002900006B607FEFDCF21B1287F2093AC002033A6
:1002A00041F1283321F2283209F047C046BF06B693
:1002B00007FEFDCF21B1287F2093AC00203129F02B
:1002C000283309F4B4CF2830C1F553B936BF06B688
:1002D00007FEFDCF21B1287F2093AC00203429F008
:1002E000283439F0283349F5A2CF81E090E044EC7E
:1002F0001DC020E030E023C06130710509F444E8FE
:1003000046BF06B607FEFDCF21B1287F2093AC0083
:10031000203539F0283589F423B1208360E070E07E
:1003200002C023B121936150704001969C0121507D
:1003300030401616170604F302C02FEF3FEF84E992
:1003400086BF02C02FEF3FEFC901089500C000C073
:1003500000C000C000C000C0000008958C988D98B7
:100360009498959808958C9AF1DF1DD008958D9AF0
:10037000EDDF8C98EBDF8D98E9DF8C9AE7DF13D007
:100380000895082E8C9AE2DF802D0DD0882311F07D
:1003900002D0F8CF08958D9A8C9AD8DF8D98D6DF49
:1003A0008C98D4DF08950894881F01C0880F59F0F5
:1003B0008D9A18F400008C9802C08C9A00C0C6DF99
:1003C0008D98C4DFF3CF8D9A8C98C0DF8D98859B74
:1003D000FECF8827849981E0B9DF9927089588277F
:1003E00001C081E071E08D9A8C98B0DF8D98AEDF0E
:1003F000859BFECF889484990894771FA0F78D9AE7
:10040000813011F08C9801C08C9AA0DF8D98859B6B
:10041000FECF9CDF872F99270895A0DF80EAB1DF08
:1004200085E0C1DF85E7BFDFB6DF0895EF92FF9279
:100430000F931F93DF93CF93CDB7DEB7E8970FB637
:10044000F894DEBF0FBECDBF7C018E010F5F1F4F42
:10045000C80168E370E040E045D1D7011B96F80180
:10046000CE01C9962D912193E817F907D9F7F70125
:1004700001851285CE01019668E370E074D121E018
:100480000817190709F020E0822FE8960FB6F894B4
:10049000DEBF0FBECDBFCF91DF911F910F91FF90B7
:1004A000EF900895CF93DF93EC01C0DF882319F418
:1004B0008B8166E10BC089818A3F19F4CE018AD213
:1004C00029C09881992321F48B816CE03AD222C013
:1004D000843689F0853628F48A3081F08233C9F475
:1004E00007C0823DA1F08A3F79F0883C91F409C0B1
:1004F000CE0186D30EC0CE015AD30BC0CE0117D386
:1005000008C0CE01D1D205C0CE0164D202C0CE0156
:1005100047D21C82DF91CF910895CF92DF92FF9254
:100520000F931F93CF93DF93FC016A01E901C80188
:100530007881772309F467C0671708F4762FD6010E
:100540002C91222339F08F0120E030E0FC01ED5B9B
:10055000FF4F3FC02081DC0113962C93139721811C
:1005600011962C931197538140E0228130E0242B87
:10057000352B1A963C932E931997558140E0248190
:1005800030E0242B352B16963C932E9315975781EC
:1005900040E0268130E0242B352B18963C932E9397
:1005A0001797F6018081870F80839881971B988326
:1005B00081E025C0D8016D918D01F080AC01420F22
:1005C000531F4F0D511DDA011B966C931B972F5F24
:1005D0003F4F271778F32081270F2083D6012C91D6
:1005E000270F2C932881271B2883222331F421E015
:1005F000DC0114962C93108255DF81E098819923B9
:1006000019F080E001C081E0DF91CF911F910F913F
:10061000FF90DF90CF90089584E083BF12BE85E005
:100620008EBD1DBC1CBC08951F920F920FB60F9279
:1006300011242F933F938F939F938091B100882330
:10064000B1F08091AD009091AE009C012F5F3F4FC3
:100650003093AE002093AD008233910541F41092A7
:10066000AE001092AD0081E0C09980E088BB9F9100
:100670008F913F912F910F900FBE0F901F90189563
:100680001F920F920FB60F9211242F933F938F93C7
:100690009F938091B2008823E1F081E08093B100C4
:1006A0008091AF009091B0009C012F5F3F4F30933D
:1006B000B0002093AF008931910559F41092B00039
:1006C0001092AF001092B1001092B20018BA1092BE
:1006D000B3009F918F913F912F910F900FBE0F907C
:1006E0001F901895CF92DF92EF92FF920F931F9376
:1006F000DF93CF930F92CDB7DEB76B01E82EF92EC3
:1007000000E010E009C0A895498348D44981F70169
:1007100041937F010F5F1F4F0C151D05A0F30F9034
:10072000CF91DF911F910F91FF90EF90DF90CF90CD
:100730000895FC019B018617970778F074D7629F94
:10074000C001639F900D729F900D11248E179F071B
:1007500028F4FC01E20FF31F01C0FB01CF01B90136
:1007600062D7CB010895EF92FF920F931F93CF931F
:10077000DF938C017B01C0E0D0E032C0A8950ED49D
:100780002D2F3327F80181918F0190E028273927F9
:10079000C901E4E096958795EA95E1F782279327CA
:1007A0009C01369527953695279528273927C90125
:1007B0009695879582279327DC2FCC27C827D927A2
:1007C0009C013327269537952227C227D327880FE8
:1007D000991F880F991FC827D9270894E108F108A5
:1007E000E114F10459F6CE01DF91CF911F910F91E1
:1007F000FF90EF900895EF92FF920F931F93CF9386
:10080000DF938A01C62FD0E0382F20E0C22BD32BF4
:10081000C417D50798F0A895C1D3CE01B80103D766
:10082000609FC001619F900D709F900D11248C17E7
:100830009D0728F4EC01C00FD11F01C0EA01CE01D1
:10084000DF91CF911F910F91FF90EF9008959F92AC
:10085000AF92BF92CF92DF92EF92FF920F931F93CE
:10086000DF93CF93CDB7DEB7C854D0400FB6F8941E
:10087000DEBF0FBECDBFF70189836A834B835C83E4
:100880002D833E830F831887CE0109966E0108944D
:10089000C11CD11C3897A60120E0283018F4DA01D9
:1008A0003C9101C03081DC013D93CD012F5F4F5F52
:1008B0005F4F3196203489F75E010894A11CB11C6A
:1008C000C50168E070E040E00DDF00E010E0B9E055
:1008D000EB2EF12CEC0EFD1E9A2CAB2C15C0819149
:1008E0008D93AE15BF05D9F702C0A89557D3809157
:1008F000020184FFFACF892D9A2D68E029D30F5F7A
:100900001F4F0830110551F0F801A3E0EE0FFF1F53
:10091000AA95E1F7EE0DFF1DD601E1CFC85BDF4FD1
:100920000FB6F894DEBF0FBECDBFCF91DF911F9100
:100930000F91FF90EF90DF90CF90BF90AF909F907E
:100940000895EF92FF920F931F93DF93CF93CDB74C
:10095000DEB7E8970FB6F894DEBF0FBECDBF082F05
:10096000162F7E010894E11CF11CC70168E370E0BA
:1009700040E0B8DE802F612F40E050E021E030E021
:1009800001E010E064DFE8960FB6F894DEBF0FBE1A
:10099000CDBFCF91DF911F910F91FF90EF90089500
:1009A0000F931F93CF93DF938C01C0E0D0E0CE0173
:1009B00060E081D62196C132D105C9F7F801838163
:1009C00067E3BFDF81E0F8018083DF91CF911F9162
:1009D0000F9108958F929F92AF92BF92CF92DF9224
:1009E000EF92FF920F931F93DF93CF93CDB7DEB7B4
:1009F00061970FB6F894DEBF0FBECDBF8C0180E0CB
:100A000090E048D6C82E882389F021E0DD247E01BD
:100A10000894E11CF11C9BE0A92EB12CA00EB11E84
:100A200081E1882E912C8C0E9D1E25C0F8018381BA
:100A30006EE126C0C701622F70E040E150E0298BD3
:100A400019D6D501F70180E029893D919191391797
:100A500009F48F5FE815F905C1F7205F803151F483
:100A6000F801838162E16DDF81E0F801808380938A
:100A7000B20007C0D394DC14E8F2F80183816CE083
:100A800060DF61960FB6F894DEBF0FBECDBFCF9189
:100A9000DF911F910F91FF90EF90DF90CF90BF906B
:100AA000AF909F908F900895FF920F931F93DF93C5
:100AB000CF93CDB7DEB760970FB6F894DEBF0FBE09
:100AC000CDBF8C0180E090E0E5D5823020F0F801C8
:100AD00083816BE11FC0F82EF39480E090E06F2DCE
:100AE000EAD5D8011B96FE0131969E012F5E3F4F3D
:100AF0008D918193E217F307D9F76F2D6295607F8F
:100B00006F50CE01019670E040E150E0CBD5F80186
:100B1000838167E316DF60960FB6F894DEBF0FBEE1
:100B2000CDBFCF91DF911F910F91FF9008950F934B
:100B30001F93DF93CF93CDB7DEB7C054D0400FB62D
:100B4000F894DEBF0FBECDBF8C011092B200CE0173
:100B5000019660E470E04FEFC5DDF8018781908574
:100B60008130910511F420E001C02FEF2A83298301
:100B700081509C4F26E0880F991F2A95E1F760E489
:100B800070E0AE014F5F5F4FAADAC80109DFF801DC
:100B9000838167E3D6DEC05CDF4F0FB6F894DEBF1B
:100BA0000FBECDBFCF91DF911F910F9108950F938D
:100BB0001F93CF93DF93EC012F81388588E390E07A
:100BC000289F8001299F100D389F100D112480E867
:100BD0000130180718F08B8164E10CC0A895DED1B4
:100BE000AE01455F5F4FC801C89768E370E0EDDA7A
:100BF0008B8167E3A6DEDF91CF911F910F9108955E
:100C0000CF92DF92EF92FF920F931F93DF93CF93D8
:100C1000CDB7DEB7EA970FB6F894DEBF0FBECDBFF3
:100C20008C0180E090E062E070E0AE014F5F5F4FCA
:100C3000F9DA3A8120E0898190E0822B932B20E839
:100C400081309207C8F5009729F4F801838167E1A4
:100C500078DE32C0F8012781308588E390E0289F54
:100C60007001299FF00C389FF00C112488EC9FEF45
:100C7000E80EF91E80E090E88E199F0988339105EF
:100C800018F4838169E15DDE33E0C32ED12CCC0EF4
:100C9000DD1EC70168E370E0A601C4DAC60168E39F
:100CA00070E061DDAC01F80125813681838167E365
:100CB00001E010E07601CBDDEA960FB6F894DEBFD6
:100CC0000FBECDBFCF91DF911F910F91FF90EF909D
:100CD000DF90CF9008954F925F926F927F928F92A4
:100CE0009F92AF92BF92CF92DF92EF92FF920F93BB
:100CF0001F93DF93CF93CDB7DEB7EA970FB6F89483
:100D0000DEBF0FBECDBF4C01FC018481882309F4F6
:100D100049C0A89543D180E090E062E070E0AE0168
:100D20004F5F5F4F7FDA3A8120E0898190E0822B2C
:100D3000932BF0E881309F07A8F5009729F4F40180
:100D4000838167E1FEDD2EC068E370E0F2DC2C01F8
:100D500066247724CC24DD2443E0A42EB12CAC0EF1
:100D6000BD1E1DC0C50168E370E040E0BBDCC301EF
:100D700068E370E0A50156DAC50168E370E0F3DCD2
:100D8000AC010894C11CD11CF401838167E392017A
:100D9000860175015CDD88E390E0680E791EC4145D
:100DA000D50400F3EA960FB6F894DEBF0FBECDBFB0
:100DB000CF91DF911F910F91FF90EF90DF90CF9037
:100DC000BF90AF909F908F907F906F905F904F906B
:100DD00008951F920F920FB60F9211242F938F93A5
:100DE0009F93EF93FF938BB19CB1E0916300EF5F12
:100DF000EF7120916200E21741F08871E093630087
:100E0000F0E0EA57FF4F908301C082E08093A60094
:100E1000FF91EF919F918F912F910F900FBE0F90A7
:100E20001F9018951F920F920FB60F9211248F9357
:100E30009F93EF93FF9390916400809165009817C2
:100E400061F0E0916500EF5FEF71E0936500F0E025
:100E5000EA59FF4F80818CB901C05598FF91EF91FD
:100E60009F918F910F900FBE0F901F901895109229
:100E7000640010926500109263001092620097FF68
:100E800003C022E02BB99F7790BD89B988E98AB960
:100E900086E880BD08959091630080916200981764
:100EA00089F0E0916200EF5FEF71E0936200F0E0A3
:100EB000EA57FF4F80819091A600392F20E0280F3C
:100EC000311D02C020E031E0C90108959091640015
:100ED0009F5F9F71209165009217E1F3E92FF0E089
:100EE000EA59FF4F808390936400559A0895EF92DA
:100EF000FF92CF93DF93E82EE7017E01F92EE70101
:100F000001C0E4DF89918823E1F7DF91CF91FF9061
:100F1000EF900895CF93DF93EC0101C0D7DFFE017E
:100F2000219684918823D1F7DF91CF910895809104
:100F300063002091620090E04F96821B91096FE15F
:100F400070E085D3089580916200809363000895D6
:100F50001F93162F2091020124FF07C02091030147
:100F600038E823272093030103C02AE520930201D8
:100F7000DC01812F815090E08B5F9E4FE4E0F1E037
:100F80002D912193E817F907D9F784E091E0612FBB
:100F900056D11C5F109302011F9108951F93CF93A8
:100FA000DF9360911301635067FDBAC08091100117
:100FB000CCE0D0E0C81BD109C95EDE4F80910F01A3
:100FC0008D3209F09BC0683009F0A8C083EC809393
:100FD000F7008AE5809360001092A70088818076F0
:100FE00031F0CE01D3D28F3F09F477C07DC09A8112
:100FF000109200018981882331F41092010120E0D0
:1010000031E082E065C0853019F4909314015DC031
:10101000863009F044C08B81813019F488E490E077
:101020001FC0823019F48AE590E02EC08330F1F4BD
:10103000992341F486E290E090931201809311018C
:1010400084E029C0913041F48AE290E0909312014B
:10105000809311018CE01FC09230E1F486E390E0B0
:10106000909312018093110182E115C0813241F405
:101070008CE690E0909312018093110189E00BC0FF
:10108000823241F48CE790E0909312018093110139
:1010900082E201C080E090E49093A70025C08830F0
:1010A00069F0893019F4909316010FC08A3049F025
:1010B0008B3059F48BE48093030107C026E131E0C3
:1010C00002C020E031E081E003C020E031E080E0B8
:1010D000309312012093110107C0988197FD8E81F2
:1010E00090E89093A70007C09F81992321F49E81E7
:1010F000981708F4892F8093610010C08091A70091
:1011000087FF0CC0CE0135D28F3F21F48EE1809352
:10111000600004C0882311F0109261001092130146
:101120008091600084FF5BC0809161008F3F09F473
:1011300056C0182F893008F018E0811B8093610099
:101140008091F70098E889278093F7001123B1F187
:101150008091A70087FF08C088EF90E0612FCFD172
:10116000182F8930B0F52AC0209111013091120159
:10117000412F415086FF0EC050E0EA01C750DF4FBB
:10118000F901A8EFB0E084918D933196AC17BD07BB
:10119000D1F70CC0D90150E0CA0187509F4FE8EF4A
:1011A000F0E06D916193E817F907D9F74F5F5F4F52
:1011B000420F531F509312014093110188EF90E0AA
:1011C000612F3DD01C5F1C3041F08FEF8093610098
:1011D00004C08FEF809361001EE1109360008AE0ED
:1011E00090B3947131F48150D9F710921401109298
:1011F0000E01DF91CF911F91089585B7836085BF60
:101200008BB780648BBF8BE4809303018AE5809366
:1012100002010895A82FB92F80E090E041E050EA44
:1012200060956F5F58F42D9138EF822797958795D9
:1012300010F0842795273F5FC8F3F3CF0895EADFC6
:101240008D939D930895CF93CFB7CF93849BFECF7B
:10125000849B09C0849B07C0849B05C0849B03C0FA
:10126000849B01C0A3C0DF93C0911001DD27C95E3C
:10127000DE4F849B02C0DF91EBCF2F930F931F9320
:1012800000B32FEF04FB20F94F933F9310B34FEFC0
:10129000012704FB21F93BE031C04E7F012F10B341
:1012A000216028C0102F4D7F2260000000B329C0AC
:1012B0004B7F2460012F000010B32BC010B3477F79
:1012C00028602AC04F7E00B320612CC04F7D10B330
:1012D00020622FC04F7B00B3206432C0422700B38E
:1012E00049934FEF0000102714FB20F910B314713D
:1012F000C9F1297F91F2012704FB21F900B3237F73
:1013000089F2315058F1102714FB22F910B3277ECF
:1013100079F2012704FB23F92F7C81F200B3102717
:1013200014FB24F92F7971F200C010B3012704FBDC
:1013300025F92F7359F200C000B3102714FB26F9CA
:10134000223040F200C010B3012704FB27F92430FB
:1013500028F64F77206810B30000F9CF10E41ABFC9
:10136000002719C03B503195C31BD04010E41ABF71
:101370000881033CF9F00B34E9F020910E0119814A
:10138000110F1213EDCF4A81441F093641F10D327E
:1013900011F0013E29F7009315013F914F911F91E4
:1013A0000F912F91DF91CAB7C6FD50CFCF91CFBF1C
:1013B000CF91189500911501002379F31091130135
:1013C0001123A1F53430A2F13093130100930F01E2
:1013D000109110013BE0311B3093100129C00091A6
:1013E000130101301CF50AE54F7049F4309160009B
:1013F00034FD20C000936000C7EFD0E01FC03091E3
:10140000020134FD17C000930201C3E0D1E016C011
:10141000052710E002BB1FC0052722C0052727C0F3
:1014200005272CC0052710E002BB33C04AE503C0E6
:1014300042ED01C0432FC4E1D0E032E011B31461AA
:10144000949A02B311BB5F9354E120E820FF052773
:1014500002BB279517951C3FD8F620FF0527279537
:1014600002BB17951C3FC0F620FF0527279517954F
:1014700002BB1C3F98F620FF0527279517951C3FB8
:1014800002BB70F600C0499120FF052702BB2795DB
:1014900017951C3F38F620FF0527279502BB1795A7
:1014A0001C3F38F520FF05272795179502BB1C3FE9
:1014B00010F520FF0527279517951C3F02BBE8F480
:1014C000242F3A9519F60B7E5F9102BB10911401FF
:1014D000110FC651D04011F010930E0110E41ABF45
:1014E000006111B31B7E402F4B7E02BB11BB42BB80
:1014F00054CF0527D3CF0527D8CF0527DDCF1F939E
:101500002091AA00162F261708F4122F2091B4005C
:101510002A30A1F4282F392FD90120E030E00BC068
:101520008091AB00F901E80FF11DED54FF4F838569
:101530008D932F5F3F4F211798F304C068E070E050
:1015400040E0D0D88091AB00810F8093AB008091B8
:10155000AA00811B8093AA00882331F481E0809344
:10156000B5001092B40002C01092B500812F1F91F7
:1015700008950F931F9370E04BEA50E02AEA30E0A1
:1015800003EB10E0CAD71F910F910895FC018081F1
:101590008076803279F48181813011F0893061F474
:1015A00083818093A90080E48093AA001092AB000D
:1015B0008FEF089580E0089580E0089580E090E046
:1015C00069D08F3F29F480E090E060E074D005C0DE
:1015D000882319F01092B300089581E08093B3003E
:1015E000089583E087BB18D885E089BF74D52FE0C4
:1015F00088E190E00FB6F894A89581BD0FBE21BD9B
:10160000FCDD8C9A80E007C0A895E7EBFBE0319702
:10161000F1F700C000008150B9F78C987894CEDFC4
:10162000A895BCDCFDCFAA1BBB1B51E107C0AA1FBC
:10163000BB1FA617B70710F0A61BB70B881F991F73
:101640005A95A9F780959095BC01CD01089597FB17
:10165000092E07260AD077FD04D0E5DF06D000204A
:101660001AF4709561957F4F0895F6F790958195DE
:101670009F4F0895DC01CB01FC01E199FECF06C02C
:10168000FFBBEEBBE09A31960DB20D924150504037
:10169000B8F70895E199FECF9FBB8EBBE09A9927DA
:1016A0008DB30895DC01CB0102C02D9105D04150CE
:1016B0005040D8F70895262FE199FECF9FBB8EBBEF
:1016C0002DBB0FB6F894E29AE19A0FBE01960895E9
:0416D000F894FFCFBC
:0216D4005AFFBB
:00000001FF
