:100000004BC065C664C063C062C061C060C05FC0F1
:100010007FC25DC05CC021C449C459C058C057C02C
:1000200056C055C054C0040309040C0342006F00BD
:100030006A006F006B000C0354006F006B006500DA
:100040006E001201100100000008C016DF0500015B
:100050000102000109022200010100804B09040095
:100060000001030000000921010100012222000714
:1000700005810308006406A0FF0901A1010902151A
:100080000026FF007508954081020903150026FF30
:1000900000750895409102C011241FBECFE5D4E041
:1000A000DEBFCDBF10E0A0E6B0E0E2E5F1E102C0C6
:1000B00005900D92A236B107D9F711E0A2E6B0E0A3
:1000C00001C01D92A633B107E1F7E8D740C898CF29
:1000D00011B88AE080B90895680F791F9C012F63D9
:1000E0002617370718F4B9016F5F7F4FA92FF4EA7D
:1000F000E0EA34E8F6BF06B607FEFDCF21B1287F5F
:100100002093B600203129F02833A1F3283009F0DC
:1001100055C0E3B936BF06B607FEFDCF21B1287F33
:100120002093B600203231F3283321F3283109F02F
:1001300040C0A3B936BF06B607FEFDCF21B1287F68
:100140002093B6002033A1F02833A1F2283289F59C
:1001500083B936BF06B607FEFDCF21B1287F2093B5
:10016000B600203329F0283329F2283211F503C0D4
:1001700020E030E020C0681B790B842F952FFC0114
:1001800020E030E044E80EC0819183B946BF06B656
:1001900007FEFDCF81B1887F8093B600883249F495
:1001A0002F5F3F4FCB01821B930B1816190664F388
:1001B00002C02FEF3FEF84E986BF02C02FEF3FEF71
:1001C000C9010895CF92DF92EF92FF920F931F9390
:1001D000CF93DF937C01EB016A0100E010E0C701DF
:1001E000BE01A60179DF2FEF8F3F920761F0C81B98
:1001F000D90B080F191F1C161D063CF4E80EF91E3A
:10020000C80ED91EECCF0FEF1FEFC801DF91CF91C1
:100210001F910F91FF90EF90DF90CF900895FA011A
:1002200044EAA0EA34E851EA46BF06B607FEFDCF2D
:1002300021B1287F2093B600203129F02833A1F383
:10024000283009F07CC0A3B936BF06B607FEFDCF43
:1002500021B1287F2093B600203231F3283321F3D7
:10026000283109F067C093B936BF06B607FEFDCF47
:1002700021B1287F2093B6002033C1F12833A1F2A9
:10028000283209F057C083B936BF06B607FEFDCF46
:1002900021B1287F2093B600203341F1283321F289
:1002A000283209F047C046BF06B607FEFDCF21B190
:1002B000287F2093B600203129F0283309F4B4CFE9
:1002C0002830C1F553B936BF06B607FEFDCF21B1C0
:1002D000287F2093B600203429F0283439F02833C1
:1002E00049F5A2CF81E090E044EC1DC020E030E071
:1002F00023C06130710509F444E846BF06B607FE25
:10030000FDCF21B1287F2093B600203539F0283564
:1003100089F423B1208360E070E002C023B121930F
:100320006150704001969C0121503040161617060E
:1003300004F302C02FEF3FEF84E986BF02C02FEF26
:100340003FEFC901089500C000C000C000C000C058
:1003500000C0000008958C988D9894989598089501
:100360008C9AF1DF1DD008958D9AEDDF8C98EBDF2C
:100370008D98E9DF8C9AE7DF13D00895082E8C9AC8
:10038000E2DF802D0DD0882311F002D0F8CF089540
:100390008D9A8C9AD8DF8D98D6DF8C98D4DF08950B
:1003A0000894881F01C0880F59F08D9A18F4000036
:1003B0008C9802C08C9A00C0C6DF8D98C4DFF3CF42
:1003C0008D9A8C98C0DF8D98859BFECF8827849965
:1003D00081E0B9DF99270895882701C081E071E0A5
:1003E0008D9A8C98B0DF8D98AEDF859BFECF889478
:1003F00084990894771FA0F78D9A813011F08C981A
:1004000001C08C9AA0DF8D98859BFECF9CDF872F43
:1004100099270895A0DF80EAB1DF85E0C1DF85E795
:10042000BFDFB6DF0895EF92FF920F931F93CF9334
:10043000DF93FC017A01E901D8018C91882321F432
:10044000FA011082188250C04881442309F44CC03C
:10045000641708F4462FC801885B9F4FDC012C917C
:100460002F5F2C93D7018C918823C9F4318120E030
:10047000808190E0822B932BD80115969C938E93CC
:100480001497358120E0848190E0822B932B17967E
:100490009C938E931697828111968C931197C19A93
:1004A00080E090E00AC061919801280F391F250F64
:1004B000311DD90118966C930196D7015C91841770
:1004C00090F3540F5C938881841B8883882331F4D4
:1004D00081E0F8018383E85BFF4F108281E098811F
:1004E000992319F080E001C081E0DF91CF911F9145
:1004F0000F91FF90EF900895FC0183818111138289
:10050000089585E08EBD82ED8DBD88E38CBD089594
:100510001F920F920FB60F9211248F9382ED8DBD13
:1005200088E38CBD81E0C09980E088BB8F910F90FB
:100530000FBE0F901F901895282F392FF90180E0DA
:1005400090E002C04193019686179707D8F308956B
:10055000FC019B018617970778F0D2D5629FC001F6
:10056000639F900D729F900D11248E179F0728F4A2
:10057000FC01E20FF31F01C0FB01CF01B901C0D59F
:10058000CB010895EF92FF920F931F93CF93DF93C8
:100590008A01C62FD0E0382F20E0C22BD32BC417FE
:1005A000D50798F0A8953ED2CE01B801A9D5609F95
:1005B000C001619F900D709F900D11248C179D07B5
:1005C00028F4EC01C00FD11F01C0EA01CE01DF9178
:1005D000CF911F910F91FF90EF900895CF92DF92EE
:1005E000EF92FF920F931F93DF93CF93CDB7DEB7B8
:1005F0002A970FB6F894DEBF0FBECDBFA89512D2D2
:1006000080E090E062E070E0AE014F5F5F4F07DE98
:100610008A81698148E050E0B5DF6C0100E010E0BC
:1006200083E0E82EF12CEC0EFD1E13C0A895FAD144
:10063000C80168E070E0A701F2DD02C0A895F2D120
:1006400080910B0184FFFACFC70168E0C5D1085F34
:100650001F4F0C151D0550F32A960FB6F894DEBFF8
:100660000FBECDBFCF91DF911F910F91FF90EF9003
:10067000DF90CF9008950F931F93DF93CF9300D017
:1006800000D0CDB7DEB78C01FC01E85BFF4F808165
:10069000883079F4F801868197819A838983A895B7
:1006A000C1D180E090E062E070E0AE014F5F5F4F4B
:1006B00089DDF801E85BFF4F808190E023E0880F3F
:1006C000991F2A95E1F7CE97A8958B839C83AAD191
:1006D000A801485F5F4F8B819C8160E470E072DD10
:1006E0000F900F900F900F90CF91DF911F910F916E
:1006F0000895CF92DF92EF92FF920F931F93DF93B3
:10070000CF93CDB7DEB729970FB6F894DEBF0FBEF3
:10071000CDBF082F192F20E07E010894E11CF11CA9
:1007200039E0C32ED12CCC0EDD1E18C08D918193E3
:10073000EC15FD05D9F704C0A895298773D1298543
:1007400080910B0184FFF8CFC70168E0298744D16D
:100750002985285F085F1F4F203419F0F701D80161
:10076000E5CF29960FB6F894DEBF0FBECDBFCF916F
:10077000DF911F910F91FF90EF90DF90CF90089540
:100780008F929F92AF92BF92CF92DF92EF92FF92A1
:100790000F931F93DF93CF93CDB7DEB7C054D040F4
:1007A0000FB6F894DEBF0FBECDBFE82E092F82E052
:1007B00090E060E470E0CCDE4C01AE2CB02ECC2496
:1007C000DD247E010894E11CF11C00271127081983
:1007D000190946E0000F111F4A95E1F70E5B1F4F04
:1007E00023C0C70160E470E040E0A6DE8C2D8F5F7F
:1007F00090E08815990511F4C80102C080E490E0EA
:10080000D7018E0D9F1DF50103C0208132962D93D7
:10081000A817B907D1F7C7016CDF0894C11CD11C18
:1008200080E890E0A80EB91EC814D904D0F2C05CCC
:10083000DF4F0FB6F894DEBF0FBECDBFCF91DF9173
:100840001F910F91FF90EF90DF90CF90BF90AF90EE
:100850009F908F900895089508951F920F920FB65C
:100860000F9211242F938F939F93EF93FF938BB14C
:100870009CB1E0916300EF5FEF7120916200E2179D
:1008800041F08871E0936300F0E0EA57FF4F9083F6
:1008900001C082E08093A600FF91EF919F918F911C
:1008A0002F910F900FBE0F901F9018951F920F92CF
:1008B0000FB60F9211248F939F93EF93FF93909114
:1008C000640080916500981761F0E0916500EF5F2A
:1008D000EF71E0936500F0E0EA59FF4F80818CB939
:1008E00001C05598FF91EF919F918F910F900FBE8E
:1008F0000F901F901895109264001092650010924E
:1009000063001092620097FF03C022E02BB99F772B
:1009100090BD89B988E98AB986E880BD089590912B
:10092000630080916200981789F0E0916200EF5FA8
:10093000EF71E0936200F0E0EA57FF4F8081909101
:10094000A600392F20E0280F311D02C020E031E041
:10095000C9010895909164009F5F9F712091650087
:100960009217E1F3E92FF0E0EA59FF4F808390936B
:100970006400559A0895EF92FF92CF93DF93E82E8B
:10098000E7017E01F92EE70101C0E4DF89918823A8
:10099000E1F7DF91CF91FF90EF900895CF93DF9330
:1009A000EC0101C0D7DFFE01219684918823D1F7A5
:1009B000DF91CF910895809163002091620090E0D3
:1009C0004F96821B91096FE170E0AED3089580913C
:1009D00062008093630008951F93162F20910B01EE
:1009E00024FF07C020910C0138E8232720930C0135
:1009F00003C02AE520930B01DC01812F815090E098
:100A0000825F9E4FEDE0F1E02D912193E817F90709
:100A1000D9F78DE091E0612F56D11C5F10930B0147
:100A20001F9108951F93CF93DF9360911C01635032
:100A300067FDBAC080911901CCE0D0E0C81BD10994
:100A4000C05EDE4F809118018D3209F09BC0683086
:100A500009F0A8C083EC809300018AE580936000D0
:100A60001092A7008881807631F0CE01FAD28F3FB4
:100A700009F477C07DC09A81109209018981882389
:100A800031F410920A0129E031E082E065C085303E
:100A900019F490931D015DC0863009F044C08B812C
:100AA000813041F482E490E090931B0180931A011D
:100AB00082E135C0823019F484E590E029C08330AA
:100AC000C9F4992341F486E290E090931B0180934E
:100AD0001A0184E024C0913019F48AE290E004C045
:100AE0009230E1F486E390E090931B0180931A0129
:100AF0008CE015C0813241F486E690E090931B01B2
:100B000080931A0189E00BC0823241F486E790E0BD
:100B100090931B0180931A0182E201C080E090E46F
:100B20009093A70025C0883069F0893019F490931C
:100B30001F010FC08A3049F08B3059F48BE4809349
:100B40000C0107C02FE131E002C029E031E081E073
:100B500003C029E031E080E030931B0120931A01AB
:100B600007C0988197FD8E8190E89093A70007C0F9
:100B70009F81992321F49E81981708F4892F8093EF
:100B8000610010C08091A70087FF0CC0CE0138D251
:100B90008F3F21F48EE18093600004C0882311F020
:100BA0001092610010921C018091600084FF5BC074
:100BB000809161008F3F09F456C0182F893008F0EA
:100BC00018E0811B809361008091000198E88927DB
:100BD000809300011123B1F18091A70087FF08C025
:100BE00081E091E0612FCFD1182F8930B0F52AC074
:100BF00020911A0130911B01412F415086FF0EC0F8
:100C000050E0EA01CE5FDE4FF901A1E0B1E084914E
:100C10008D933196AC17BD07D1F70CC0D90150E0C8
:100C2000CA018E5F9E4FE1E0F1E06D916193E8179C
:100C3000F907D9F74F5F5F4F420F531F50931B01C6
:100C400040931A0181E091E0612F3DD01C5F1C3080
:100C500041F08FEF8093610004C08FEF80936100BB
:100C60001EE1109360008AE090B3947131F48150DA
:100C7000D9F710921D0110921701DF91CF911F91AA
:100C8000089585B7836085BF8BB780648BBF8BE485
:100C900080930C018AE580930B010895A82FB92F4A
:100CA00080E090E041E050EA60956F5F58F42D914C
:100CB00038EF82279795879510F0842795273F5F17
:100CC000C8F3F3CF0895EADF8D939D930895CF93F2
:100CD000CFB7CF93849BFECF849B09C0849B07C072
:100CE000849B05C0849B03C0849B01C0A3C0DF9389
:100CF000C0911901DD27C05EDE4F849B02C0DF91E9
:100D0000EBCF2F930F931F9300B32FEF04FB20F92A
:100D10004F933F9310B34FEF012704FB21F93BE0C2
:100D200031C04E7F012F10B3216028C0102F4D7F9E
:100D30002260000000B329C04B7F2460012F000017
:100D400010B32BC010B3477F28602AC04F7E00B37A
:100D500020612CC04F7D10B320622FC04F7B00B3A9
:100D6000206432C0422700B349934FEF00001027A0
:100D700014FB20F910B31471C9F1297F91F20127F6
:100D800004FB21F900B3237F89F2315058F1102779
:100D900014FB22F910B3277E79F2012704FB23F913
:100DA0002F7C81F200B3102714FB24F92F7971F204
:100DB00000C010B3012704FB25F92F7359F200C0BE
:100DC00000B3102714FB26F9223040F200C010B304
:100DD000012704FB27F9243028F64F77206810B349
:100DE0000000F9CF10E41ABF002719C03B5031951D
:100DF000C31BD04010E41ABF0881033CF9F00B3448
:100E0000E9F0209117011981110F1213EDCF4A81DA
:100E1000441F093641F10D3211F0013E29F70093CC
:100E20001E013F914F911F910F912F91DF91CAB7F2
:100E3000C6FD50CFCF91CFBFCF91189500911E0125
:100E4000002379F310911C011123A1F53430A2F194
:100E500030931C0100931801109119013BE0311BE4
:100E60003093190129C000911C0101301CF50AE5DD
:100E70004F7049F43091600034FD20C00093600051
:100E8000C0E0D1E01FC030910B0134FD17C00093CA
:100E90000B01CCE0D1E016C0052710E002BB1FC05B
:100EA000052722C0052727C005272CC0052710E0ED
:100EB00002BB33C04AE503C042ED01C0432FC4E189
:100EC000D0E032E011B31461949A02B311BB5F9386
:100ED00054E120E820FF052702BB279517951C3F0A
:100EE000D8F620FF0527279502BB17951C3FC0F6B3
:100EF00020FF05272795179502BB1C3F98F620FF7A
:100F00000527279517951C3F02BB70F600C0499135
:100F100020FF052702BB279517951C3F38F620FFB9
:100F20000527279502BB17951C3F38F520FF05279D
:100F30002795179502BB1C3F10F520FF0527279525
:100F400017951C3F02BBE8F4242F3A9519F60B7E47
:100F50005F9102BB10911D01110FC651D04011F0DD
:100F60001093170110E41ABF006111B31B7E402FCC
:100F70004B7E02BB11BB42BB54CF0527D3CF052705
:100F8000D8CF0527DDCF1F932091B400162F261749
:100F900008F4122F2091B8002A30B9F42091B5003E
:100FA00030E0482F592FFA01A901410F511D09C006
:100FB000D901A954BF4F18968C91189781932F5F30
:100FC0003F4F24173507A1F704C068E070E040E008
:100FD000B3DA8091B500810F8093B5008091B400A1
:100FE000811B8093B400882331F481E08093B900A1
:100FF0001092B80002C01092B900812F1F9108957D
:101000004091B400461708F4642FFC018091B500AC
:1010100090E09C01260F311D08C05191DC01A954BC
:10102000BF4F18965C931897019682179307A9F7FC
:101030008091B500860F8093B500942F961B9093F6
:10104000B400992341F481E08093BA001092B80073
:101050008093A90002C01092BA0081E0911180E053
:101060000895FC018091AA008F5F8093AA0080817F
:101070008076803279F48181813011F0893061F499
:1010800083818093B30080E48093B4001092B50014
:101090008FEF089580E0089580E0089583E087BB96
:1010A00030DA19BE15D82FE088E190E00FB6F89439
:1010B000A89581BD0FBE21BDE4DD8C9A80E007C0FC
:1010C000A895E7EBFBE03197F1F700C000008150F5
:1010D000B9F78C98789481E08093B700A895A2DC4A
:1010E0008091A9008823D1F31092A9008091AA00D1
:1010F0008093AB008BEA90E043DB1092AA00EECF26
:10110000AA1BBB1B51E107C0AA1FBB1FA617B7072D
:1011100010F0A61BB70B881F991F5A95A9F7809549
:101120009095BC01CD01089597FB092E07260AD0A2
:1011300077FD04D0E5DF06D000201AF470956195A4
:101140007F4F0895F6F7909581959F4F0895F894F5
:02115000FFCFCF
:021152005AFF42
:00000001FF
