:1000000052C0E7C46BC06AC069C068C067C066C040
:100010001AC264C063C09EC2C6C260C05FC05EC078
:100020005DC05CC05BC0040309040C0342006F00A8
:100030006A006F006B000C0354006F006B006500DA
:100040006E001201100100000008C016DF0500015B
:1000500001020001090222000101008019090400C7
:100060000001030000000921010100012230000706
:1000700005810308006406A0FF0901A1010902151A
:100080000026FF007508950881020903150026FF68
:10009000007508950891020904150026FF007508EF
:1000A0009508B20201C011241FBECFE5D4E0DEBF27
:1000B000CDBF10E0A0E6B0E0EAE2FEE002C00590AD
:1000C0000D92A436B107D9F710E0A4E6B0E001C064
:1000D0001D92A73FB107E1F744D6A5C691CF11B84D
:1000E0008AE080B90895680F791F9C012F63261755
:1000F000370718F4B9016F5F7F4FA92FF4EAE0EAE0
:1001000034E8F6BF06B607FEFDCF21B1287F209365
:10011000C000203129F02833A1F3283009F055C060
:10012000E3B936BF06B607FEFDCF21B1287F209385
:10013000C000203231F3283321F3283109F040C0C8
:10014000A3B936BF06B607FEFDCF21B1287F2093A5
:10015000C0002033A1F02833A1F2283289F583B9F9
:1001600036BF06B607FEFDCF21B1287F2093C00021
:10017000203329F0283329F2283211F503C020E07A
:1001800030E020C0681B790B842F952FFC0120E004
:1001900030E044E80EC0819183B946BF06B607FE41
:1001A000FDCF81B1887F8093C000883249F42F5FF2
:1001B0003F4FCB01821B930B1816190664F302C044
:1001C0002FEF3FEF84E986BF02C02FEF3FEFC90159
:1001D0000895CF92DF92EF92FF920F931F93CF93E8
:1001E000DF937C01EB016A0100E010E0C701BE0172
:1001F000A60179DF2FEF8F3F920761F0C81BD90B63
:10020000080F191F1C161D063CF4E80EF91EC80E37
:10021000D91EECCF0FEF1FEFC801DF91CF911F91D7
:100220000F91FF90EF90DF90CF900895FA0144EA8C
:10023000A0EA34E851EA46BF06B607FEFDCF21B179
:10024000287F2093C000203129F02833A1F32830E3
:1002500009F07CC0A3B936BF06B607FEFDCF21B1B9
:10026000287F2093C000203231F3283321F3283136
:1002700009F067C093B936BF06B607FEFDCF21B1BE
:10028000287F2093C0002033C1F12833A1F2283207
:1002900009F057C083B936BF06B607FEFDCF21B1BE
:1002A000287F2093C000203341F1283321F22832E7
:1002B00009F047C046BF06B607FEFDCF21B1287F33
:1002C0002093C000203129F0283309F4B4CF28301E
:1002D000C1F553B936BF06B607FEFDCF21B1287F61
:1002E0002093C000203429F0283439F0283349F510
:1002F000A2CF81E090E044EC1DC020E030E023C0BC
:100300006130710509F444E846BF06B607FEFDCF2B
:1003100021B1287F2093C000203539F0283589F499
:1003200023B1208360E070E002C023B121936150CB
:10033000704001969C01215030401616170604F3B8
:1003400002C02FEF3FEF84E986BF02C02FEF3FEFDF
:10035000C901089500C000C000C000C000C000C0B6
:10036000000008958C988D989498959808958C9A8B
:10037000F1DF1DD008958D9AEDDF8C98EBDF8D981D
:10038000E9DF8C9AE7DF13D00895082E8C9AE2DF1C
:10039000802D0DD0882311F002D0F8CF08958D9ACA
:1003A0008C9AD8DF8D98D6DF8C98D4DF0895089486
:1003B000881F01C0880F59F08D9A18F400008C989E
:1003C00002C08C9A00C0C6DF8D98C4DFF3CF8D9A2F
:1003D0008C98C0DF8D98859BFECF8827849981E01B
:1003E000B9DF99270895882701C081E071E08D9ACF
:1003F0008C98B0DF8D98AEDF859BFECF8894849972
:100400000894771FA0F78D9A813011F08C9801C065
:100410008C9AA0DF8D98859BFECF9CDF872F992734
:100420000895A0DF80EAB1DF85E0C1DF85E7BFDFA7
:10043000B6DF089585E08EBD82ED8DBD88E38CBD6D
:1004400084E089BF08951F920F920FB60F92112476
:100450008F9382ED8DBD88E38CBD81E0C09980E0F3
:1004600088BB8F910F900FBE0F901F901895FA01C7
:10047000262F30E0582F40E0242B352B2E173F0736
:1004800088F0C901BF01A8D46E9FC0016F9F900D75
:100490007E9F900D11248217930728F49C012E0F44
:1004A0003F1F01C09F01C9010895DF92EF92FF92A3
:1004B0000F931F93DF93CF93CDB7DEB7C254D040D5
:1004C0000FB6F894DEBF0FBECDBF80E090E062E0D3
:1004D00070E0AE014F5F5F4FA9DE89816A8140E421
:1004E00050E0C5DF7C01DD248E010D5F1F4F10C081
:1004F00060E470E0A8019ADE02C0A89510D1809156
:10050000CC0084FFFACFC80160E4E3D080E4D80EC9
:100510008D2D90E08E159F0558F3CE5BDF4F0FB603
:10052000F894DEBF0FBECDBFCF91DF911F910F9129
:10053000FF90EF90DF90089590E0837090700097A7
:1005400039F080916000882319F06A3009F4ADDF3A
:10055000089508951F920F920FB60F9211242F93B2
:100560008F939F93EF93FF938BB19CB1E0916500C4
:10057000EF5FEF7120916400E21741F08871E09322
:100580006500F0E0E857FF4F908301C082E0809360
:10059000A800FF91EF919F918F912F910F900FBE27
:1005A0000F901F9018951F920F920FB60F92112463
:1005B0008F939F93EF93FF939091660080916700D4
:1005C000981761F0E0916700EF5FEF71E0936700CB
:1005D000F0E0E859FF4F80818CB901C05598FF9138
:1005E000EF919F918F910F900FBE0F901F901895D4
:1005F00010926600109267001092650010926400DD
:1006000097FF03C022E02BB99F7790BD89B988E995
:100610008AB986E880BD0895909165008091640054
:10062000981789F0E0916400EF5FEF71E093640048
:10063000F0E0E857FF4F80819091A800392F20E02B
:10064000280F311D02C020E031E0C90108959091CA
:1006500066009F5F9F71209167009217E1F3E92F79
:10066000F0E0E859FF4F808390936600559A089513
:10067000EF92FF92CF93DF93E82EE7017E01F92EF0
:10068000E70101C0E4DF89918823E1F7DF91CF9191
:10069000FF90EF900895CF93DF93EC0101C0D7DF77
:1006A000FE01219684918823D1F7DF91CF9108959F
:1006B000809165002091640090E04F96821B910923
:1006C0006FE170E09DD30895809164008093650090
:1006D00008951F93162F2091CC0024FF07C020916E
:1006E000CD0038E823272093CD0003C02AE52093CE
:1006F000CC00DC01812F815090E081539F4FEEECC4
:10070000F0E02D912193E817F907D9F78EEC90E0EE
:10071000612F5BD11C5F1093CC001F9108951F9334
:10072000CF93DF936091DD00635067FDBFC0809180
:10073000DA00CCE0D0E0C81BD109CF51DF4F809167
:10074000D9008D3209F0A0C0683009F0ADC083EC4B
:100750008093C1008AE5809361001092A90088818E
:10076000807631F0CE01D5D28F3F09F47CC082C0B3
:100770009A811092CA008981882331F41092CB00AB
:100780002AEC30E082E06AC0853019F49093DE00F4
:1007900062C0863009F049C08B81813041F482E427
:1007A00090E09093DC008093DB0082E13AC08230DD
:1007B00041F484E590E09093DC008093DB0082E2DA
:1007C00030C08330C9F4992341F486E290E09093DD
:1007D000DC008093DB0084E024C0913019F48AE2CD
:1007E00090E004C09230E1F486E390E09093DC0066
:1007F0008093DB008CE015C0813241F486E690E006
:100800009093DC008093DB0089E00BC0823241F4DE
:1008100086E790E09093DC008093DB0080E301C0EA
:1008200080E090E49093A90025C0883069F0893079
:1008300019F49093E0000FC08A3049F08B3059F4DE
:100840008BE48093CD0007C020EE30E002C02AEC9C
:1008500030E081E003C02AEC30E080E03093DC003F
:100860002093DB0007C0988197FD8E8190E89093DC
:10087000A90007C09F81992321F49E81981708F44D
:10088000892F8093620010C08091A90087FF0CC05F
:10089000CE011FD28F3F21F48EE18093610004C00E
:1008A000882311F0109262001092DD0080916100A7
:1008B00084FF5BC0809162008F3F09F456C0182FFF
:1008C000893008F018E0811B809362008091C1009C
:1008D00098E889278093C1001123B1F18091A90084
:1008E00087FF08C082EC90E0612FCFD1182F8930AC
:1008F000B0F52AC02091DB003091DC00412F41503F
:1009000086FF0EC050E0EA01CD53DF4FF901A2ECA3
:10091000B0E084918D933196AC17BD07D1F70CC030
:10092000D90150E0CA018D539F4FE2ECF0E06D9188
:100930006193E817F907D9F74F5F5F4F420F531FD5
:100940005093DC004093DB0082EC90E0612F3DD0BF
:100950001C5F1C3041F08FEF8093620004C08FEF6A
:10096000809362001EE1109361008AE090B394715D
:1009700031F48150D9F71092DE001092D800DF9147
:10098000CF911F91089585B7836085BF8BB7806431
:100990008BBF8BE48093CD008AE58093CC000895D3
:1009A000A82FB92F80E090E041E050EA60956F5F9A
:1009B00058F42D9138EF82279795879510F084276A
:1009C00095273F5FC8F3F3CF0895EADF8D939D939A
:1009D0000895CF93CFB7CF93849BFECF849B09C05C
:1009E000849B07C0849B05C0849B03C0849B01C07B
:1009F000A3C0DF93C091DA00DD27CF51DF4F849B86
:100A000002C0DF91EBCF2F930F931F9300B32FEF13
:100A100004FB20F94F933F9310B34FEF012704FBE2
:100A200021F93BE031C04E7F012F10B3216028C077
:100A3000102F4D7F2260000000B329C04B7F24603F
:100A4000012F000010B32BC010B3477F28602AC0CD
:100A50004F7E00B320612CC04F7D10B320622FC0A9
:100A60004F7B00B3206432C0422700B349934FEF5D
:100A70000000102714FB20F910B31471C9F1297F6D
:100A800091F2012704FB21F900B3237F89F2315051
:100A900058F1102714FB22F910B3277E79F20127B1
:100AA00004FB23F92F7C81F200B3102714FB24F9F7
:100AB0002F7971F200C010B3012704FB25F92F73C1
:100AC00059F200C000B3102714FB26F9223040F27F
:100AD00000C010B3012704FB27F9243028F64F7714
:100AE000206810B30000F9CF10E41ABF002719C026
:100AF0003B503195C31BD04010E41ABF0881033C22
:100B0000F9F00B34E9F02091D8001981110F12137C
:100B1000EDCF4A81441F093641F10D3211F0013EFB
:100B200029F70093DF003F914F911F910F912F9173
:100B3000DF91CAB7C6FD50CFCF91CFBFCF911895E7
:100B40000091DF00002379F31091DD001123A1F55E
:100B50003430A2F13093DD000093D9001091DA0017
:100B60003BE0311B3093DA0029C00091DD000130F9
:100B70001CF50AE54F7049F43091610034FD20C046
:100B800000936100C1ECD0E01FC03091CC0034FD77
:100B900017C00093CC00CDECD0E016C0052710E0C4
:100BA00002BB1FC0052722C0052727C005272CC070
:100BB000052710E002BB33C04AE503C042ED01C087
:100BC000432FC4E1D0E032E011B31461949A02B330
:100BD00011BB5F9354E120E820FF052702BB279556
:100BE00017951C3FD8F620FF0527279502BB1795C0
:100BF0001C3FC0F620FF05272795179502BB1C3F19
:100C000098F620FF0527279517951C3F02BB70F625
:100C100000C0499120FF052702BB279517951C3F6F
:100C200038F620FF0527279502BB17951C3F38F59E
:100C300020FF05272795179502BB1C3F10F520FFC5
:100C40000527279517951C3F02BBE8F4242F3A95FA
:100C500019F60B7E5F9102BB1091DE00110FC65199
:100C6000D04011F01093D80010E41ABF006111B306
:100C70001B7E402F4B7E02BB11BB42BB54CF0527CE
:100C8000D3CF0527D8CF0527DDCFCF93DF93FC0146
:100C90009091BD00862F961708F4892FA091BE0071
:100CA000B0E0A555BF4FEF019D01280F311D02C0D7
:100CB0004D914993A217B307D9F781832091BE00C4
:100CC000280F2093BE00981B9093BD00DF91CF9119
:100CD00008952091BD00261708F4622F422F461B6D
:100CE0004093BD002091B40030E023703070211596
:100CF000310539F081E08093BF00442349F080E062
:100D0000089541E026DC81E09091BD00911180E0E2
:100D10000895FC01808180768032F9F481818130F0
:100D200051F41092BD001092BE0093819093B400D4
:100D30008093B30010C0893081F483818093B40024
:100D4000833011F488E003C0823049F480E480935A
:100D5000BD001092BE008FEF089580E0089580E0FE
:100D6000089583E087BB66DBBAD92FE088E190E085
:100D70000FB6F894A89581BD0FBE21BD04DE8C9AF4
:100D800080E007C0A895E7EBFBE03197F1F700C0E2
:100D900000008150B9F78C98789480E090E068E08A
:100DA00070E04BEA50E042DAA895B9DC8091B300DC
:100DB0008823D1F302C0A895B2DC8091CC0084FFD7
:100DC000FACF8091B4008093B50085EB90E068E0A5
:100DD00080DC1092B300E8CFAA1BBB1B51E107C017
:100DE000AA1FBB1FA617B70710F0A61BB70B881FBB
:100DF000991F5A95A9F780959095BC01CD0108954A
:100E000097FB092E07260AD077FD04D0E5DF06D030
:100E100000201AF4709561957F4F0895F6F790952C
:0A0E200081959F4F0895F894FFCFCD
:040E2A00015AFF006A
:00000001FF
