:1000000012C017C016C015C014C013C012C011C052
:1000100010C00FC00EC00DC00CC00BC00AC009C07C
:1000200008C007C006C011241FBECFEDCDBFCBD086
:10003000CFC0E6CF00C000C000C000C000C000C0FC
:10004000000008958C988D989498959808958C9AAE
:10005000F1DF1DD008958D9AEDDF8C98EBDF8D9840
:10006000E9DF8C9AE7DF13D00895082E8C9AE2DF3F
:10007000802D0DD0882311F002D0F8CF08958D9AED
:100080008C9AD8DF8D98D6DF8C98D4DF08950894A9
:10009000881F01C0880F59F08D9A18F400008C98C1
:1000A00002C08C9A00C0C6DF8D98C4DFF3CF8D9A52
:1000B0008C98C0DF8D98859BFECF8827849981E03E
:1000C000B9DF99270895882701C081E071E08D9AF2
:1000D0008C98B0DF8D98AEDF859BFECF8894849995
:1000E0000894771FA0F78D9A813011F08C9801C089
:1000F0008C9AA0DF8D98859BFECF9CDF872F992758
:100100000895DF93CF93CDB7DEB7C950CDBF9987A0
:10011000888719821C821B821A8282E090E09E836B
:100120008D838D819E810024880F991F001C880F6C
:10013000991F001C892F902D8F8301C0000082DF42
:10014000198238C080EA83DF8C838C818823B1F3E5
:100150008981882F90E0002496958795079496953D
:1001600087950794982F802D892F990F990B8FDFF2
:1001700089818295880F880F807C89DF09C0288556
:1001800039858A819B81820F931FFC0180817FDFEB
:1001900021E08A819B818034910508F020E08A81EA
:1001A0009B8101969B838A83222349F768DF89819B
:1001B0008F5F898399818F81981720F2C75FCDBFA8
:1001C000CF91DF910895DF93CF93CDB7DEB7FFCF07
:0401D000F894FFCFD1
:00000001FF
